:04000000A9EF0AF06A
:1000080000C016F001C015F0F2A422D0F294CB0E75
:10001800D66EF30ED76E010E0001665D006E000EFF
:100028006759016E00C066F001C067F0FCEC05F08E
:10003800FF0E411802E1FF0E40180AE1010E4C5C68
:10004800006E000E4D58016E00C04CF001C04DF01E
:0A00580016C000F015C001F0110001
:10006200240E0C6EB50E0D6E0D2EFED70C2EFCD787
:0600720000000000120076
:0A007800530E0D6E0D2EFED7120080
:100082000134083609360450085E0550D8A0053CF4
:10009200095E003601360F0E0C6E01340836093641
:1000A200045000A006D0085E0550D8A0053C095EA9
:1000B20005D008260550D8B0053C09260036013681
:1000C2000C2EEBD700B006D0045008260550D8B04D
:0800D200053C092600001200A4
:0C00DA0000000000000000000000120008
:1000E60000019EBF02D0839E01D0838E9EBD02D0AA
:1000F600839C01D0838C9EBB02D0839A01D0838AD5
:100106009EB902D0839801D0838860B102D08380E3
:1001160001D083908384DEDF83949EB702D0839ED2
:1001260001D0838E9EB502D0839C01D0838C9EB372
:1001360002D0839A01D0838A9EB102D0839801D0DF
:10014600838860B102D0838001D083908384C2DF2C
:0E015600839460A102D082DF01D08BDF120003
:100164000450000A08E10550000A05E1FF0E006E84
:100174007F0E016E57D00D6A096A086A015000109B
:10018400D8B4000C015005180A6E0ABE0D1E0B6A85
:1001940005AE05D0041E051E042AD8B4052A01AEF6
:1001A40005D0001E011E002AD8B4012A01500510F2
:1001B4000A6E0ABE10D063DF0BB020D00DAE000C67
:1001C400001E011E002AD8B4012A081E091E082A8E
:1001D400D8B4092A000C05AE0DD001BE07D00150D9
:1001E400096E0050086E016A006AE8D7016A006A65
:1001F400002A000C011E001E0B2ADDD7082AD8B4E1
:10020400092A0450085CD8A4D9D70550095CD8A49D
:10021400D5D7096A086A002AD8B4012A01AECED714
:060224000000FF0C1200B7
:0E022A00000160919AC09EF059DF60811200C1
:1002380010D0800E00019A6F1AD0C00E9A6F17D096
:10024800940E9A6F14D0D40E9A6F11D0800E9A6FB4
:100258000ED000019A51010AECE09A51020AEDE031
:100268009A51030AEDE09A51040AEDE0EFD79B0595
:10027800006E9A51002600C09AF0608100C09EF07E
:0E0288002EDF60919CC09EF02ADF6081120084
:10029600000E00019D1902E1010E9C1925E0000ED9
:1002A6009D1902E1030E9C191FE0000E9D1902E143
:1002B600050E9C1919E0000E9D1902E1070E9C1906
:1002C60013E0000E9D1902E1080E9C190DE0000EC8
:1002D6009D1902E10A0E9C1907E0000E9D1902E124
:1002E6000C0E9C1901E005D01F0E006E000E016E6B
:1002F60068D0000E9D1902E1040E9C1913E0000E51
:100306009D1902E1060E9C190DE0000E9D1902E1F1
:10031600090E9C1907E0000E9D1902E10B0E9C19AF
:1003260001E005D01E0E006E000E016E4AD0000ED2
:100336009D1902E1020E9C1940E1040E046E000EA6
:10034600056E9AC000F09BC001F009DF08C000F0FE
:1003560009C001F0000E011802E1000E001814E1B8
:10036600640E046E000E056E9AC000F09BC001F08C
:10037600F6DE08C000F009C001F0000E011802E127
:10038600000E001801E014D0900E046E010E056EEA
:100396009AC000F09BC001F0E2DE08C000F009C080
:1003A60001F0000E011802E1000E001801E005D070
:1003B6001D0E006E000E016E04D01C0E006E000EA7
:0403C600016E1200B2
:1003CA000B6A0A6A096A00500402F4CF09F0F3CFF3
:1003DA0008F001500502F4CF0BF0F3CF0AF00050F9
:1003EA000502F3500926F4500A22E86A0B2201504A
:1003FA000402F3500926F4500A22E86A0B2208C0C4
:10040A0000F009C001F00AC002F00BC003F01200AC
:10041A000001966B96519425E96E000E9521EA6EBD
:10042A00EE520BE096519425E96E000E9521EA6E84
:0C043A00EECF9AF0F5DE962BEDD7120005
:10044600020E00019A6F030E9B6F200E9C6FF1DE69
:10045600E80E046E030E056E94C000F095C001F020
:100466007EDE0050300F00019A6FDCDE640E046EF3
:10047600000E056E94C000F095C001F070DE0A0E05
:10048600046E000E056E6BDE08C000F009C001F0B8
:100496000050300F00019A6FC5DE0A0E046E000E82
:1004A600056E94C000F095C001F059DE0A0E046E88
:1004B600000E056E54DE08C000F009C001F00050C1
:1004C600300F00019A6FAEDE0A0E046E000E056E46
:1004D60094C000F095C001F042DE08C000F009C0EB
:1004E60001F00050300F00019A6F9CDE2F0E9A6FBC
:1004F60099DE0A0E046E000E056E96C000F097C0D7
:1005060001F02DDE0050300F00019A6F8BDE0A0ECF
:10051600046E000E056E96C000F097C001F01FDE57
:1005260008C000F009C001F00050300F00019A6FBA
:1005360079DE2F0E9A6F76DE0A0E046E000E056EB9
:1005460098C000F099C001F00ADE0050300F00019B
:100556009A6F68DE0A0E046E000E056E98C000F0F3
:1005660099C001F0FCDD08C000F009C001F00050A0
:0A057600300F00019A6F56DE1200EC
:10058000020E00019A6F030E9B6F200E9C6F54DECB
:100590000A0E046E000E056E94C000F095C001F0C6
:1005A000E1DD0050300F00019A6F3FDE0A0E046E4D
:1005B000000E056E94C000F095C001F0D3DD08C0B8
:1005C00000F009C001F00050300F00019A6F2DDEDD
:1005D0003A0E9A6F2ADE0A0E046E000E056E96C061
:1005E00000F097C001F0BEDD0050300F00019A6F9F
:1005F0001CDE0A0E046E000E056E96C000F097C059
:1006000001F0B0DD08C000F009C001F00050300F6B
:1006100000019A6F0ADE3A0E9A6F07DE0A0E046E28
:10062000000E056E98C000F099C001F09BDD0050EF
:10063000300F00019A6FF9DD0A0E046E000E056E90
:1006400098C000F099C001F08DDD08C000F009C02D
:1006500001F00050300F00019A6FE7DD200E9A6F15
:0A066000E4DD200E9A6FE1DD1200C8
:10066A00000E3F1802E1000E3E18D8A460D01AD03E
:10067A00020E00019A6F030E9B6F200E9C6FD7DD4E
:10068A0025D0020E9A6F060E9B6F3A0E9C6FCFDD35
:10069A001DD0020E9A6F090E9B6F3A0E9C6FC7DD32
:1006AA0015D014D00001000E951902E1000E94191C
:1006BA00DFE0000E951902E1010E9419E2E0000E46
:1006CA00951902E1020E9419E4E0EBD7800E97190E
:1006DA00006E800E005C02E1000E965D21E30A0EB8
:1006EA00046E000E056E96C000F097C001F035DD6D
:1006FA000050300F00019A6F93DD0A0E046E000E4F
:10070A00056E96C000F097C001F027DD08C000F022
:10071A0009C001F00050300F00019A6F81DD06D048
:10072A00200E9A6F7DDD200E9A6F7ADDF5D0DED02D
:10073A000001020E9A6F030E9B6F200E9C6F77DDED
:10074A00800E9719006E800E005C02E1000E965D25
:10075A004FE3E80E046E030E056E96C000F097C0D4
:10076A0001F0FBDC0050300F00019A6F59DD640E76
:10077A00046E000E056E96C000F097C001F0EDDC25
:10078A000A0E046E000E056EE8DC08C000F009C00F
:10079A0001F00050300F00019A6F42DD0A0E046E1C
:1007AA00000E056E96C000F097C001F0D6DC0A0E66
:1007BA00046E000E056ED1DC08C000F009C001F01D
:1007CA000050300F00019A6F2BDD0A0E046E000EE6
:1007DA00056E96C000F097C001F0BFDC08C000F0BB
:1007EA0009C001F00050300F00019A6F19DD0CD0DA
:1007FA00200E9A6F15DD200E9A6F12DD200E9A6F69
:10080A000FDD200E9A6F0CDD87D0020E9A6F080E4C
:10081A009B6F2F0E9C6F0BDD800E9719006E800E5A
:10082A00005C02E1000E965D21E30A0E046E000EE2
:10083A00056E96C000F097C001F08FDC0050300FB3
:10084A0000019A6FEDDC0A0E046E000E056E96C06A
:10085A0000F097C001F081DC08C000F009C001F087
:10086A000050300F00019A6FDBDC06D0200E9A6F21
:10087A00D7DC200E9A6FD4DC4FD0020E9A6F0B0E83
:10088A009B6F2F0E9C6FD3DC800E9719006E800E23
:10089A00005C02E1000E965D21E30A0E046E000E72
:1008AA00056E96C000F097C001F057DC0050300F7B
:1008BA0000019A6FB5DC0A0E046E000E056E96C032
:1008CA0000F097C001F049DC08C000F009C001F04F
:1008DA000050300F00019A6FA3DC06D0200E9A6FE9
:1008EA009FDC200E9A6F9CDC17D016D00001000EF8
:1008FA00951902E1000E9419D8B41AD7000E951969
:10090A0002E1010E9419D8B480D7000E951902E1BC
:0A091A00020E9419B2E0E9D71200B2
:1009240000017E4B7F2B000E7F1902E13C0E7E19E5
:1009340040E17E6B7F6B804B812B000E811902E1BD
:100944003C0E801936E1806B816B8A4B8B2B000E39
:100954008B1902E1180E8A192CE18A6B8B6B684B98
:10096400692B82C09AF083C09BF084C09CF085C040
:100974009DF08FDC010E0024026E000E0120036E38
:1009840000016951031802E10250681912E1010ED5
:10099400686F000E696F844B852B000E851902E188
:1009A4000D0E841906E1010E846F000E856F824BD3
:0409B400832B12007F
:1009B8000900F5CFE6FF0006FBE10106F9E11200A8
:1009C800800E006E800E00016719005C02E166511E
:1009D80000082CE3C80E666F000E676F9FDF000EDD
:1009E800411802E1000E401821E1000E3F1802E113
:1009F800000E3E180EE18AC094F08BC095F080C0BE
:100A080096F081C097F07EC098F07FC099F0B4DD71
:100A18000DD082C094F083C095F084C096F085C054
:0E0A280097F068C098F069C099F009DD1200DF
:100A3600000E0001711902E1020E70190AE1FF0EA3
:100A4600891902E1EC0E881903E1886B896B01D0E4
:100A5600CAD091D0000E3F1802E1000E3E1815E1F3
:100A6600010E7C5D006E000E7D59016E00C07CF0AB
:100A760001C07DF0FF0E7D1902E1FF0E7C1904E135
:100A8600170E7C6F000E7D6F0AD0010E7A5D006E28
:100A9600000E7B59016E00C07AF001C07BF080D059
:100AA600000E3F1802E1000E3E1815E1010E765DBC
:100AB600006E000E7759016E00C076F001C077F027
:100AC600FF0E771902E1FF0E761904E13B0E766FF1
:100AD600000E776F14D0010E785D006E000E795906
:100AE600016E00C078F001C079F0000E791902E1BC
:100AF600000E781904E10C0E786F000E796F50D055
:100B0600000E3F1802E1000E3E1815E1010E6E5D63
:100B1600006E000E6F59016E00C06EF001C06FF0DE
:100B2600FF0E6F1902E1FF0E6E1904E13B0E6E6FA8
:100B3600000E6F6F1ED0010E725D006E000E7359AF
:100B4600016E00C072F001C073F0000E731902E16D
:100B5600000E72190EE17AC09AF07BC09BF078C045
:100B66009CF079C09DF04BEC01F000C072F001C022
:100B760073F016D015D0000E0001751902E1000EB3
:100B86007419D8B467D7000E751902E1010E7419ED
:100B960087E0000E751902E1020E7419B1E0EAD77A
:100BA600000E3F1802E1000E3E180EE17CC094F0E4
:100BB6007DC095F076C096F077C097F06EC098F03D
:100BC6006FC099F0DADC0DD07AC094F07BC095F056
:100BD60078C096F079C097F072C098F073C099F01B
:080BE6002FDC706B716B120033
:0A0BEE00000E9EBA010E006E120008
:100BF80081CF5EF0000E5F6E000E5F1802E1EF0E0F
:100C08005E1838E0000E5F1802E1FB0E5E1832E055
:100C1800000E5F1802E1BF0E5E182CE0000E5F1890
:100C280002E17F0E5E1826E0000E5F1802E1FF0E5B
:100C38005E1820E0640E506E000E516E900E4E6EDF
:100C4800010E4F6E640E00016C6F000E6D6F640E26
:100C5800886F000E896F706B716B70C06AF071C01D
:100C68006BF06AC04AF06BC04BF04AC086F04BC0CC
:100C780087F0FAD0000E5F1802E1EF0E5E180AE165
:100C8800010E505C006E000E5158016E00C050F00D
:100C980001C051F0000E5F1802E1FB0E5E180AE178
:100CA800010E4E5C006E000E4F58016E00C04EF0F3
:100CB80001C04FF0000E5F1802E1BF0E5E181EE182
:100CC800FF0E411802E1FF0E401818E10001010E65
:100CD8006C5D006E000E6D59016E00C06CF001C0B5
:100CE8006DF0800E006E800E6D19005C02E16C5193
:100CF800000804E3020E6A6F000E6B6F000E5F18A7
:100D080002E17F0E5E181EE1FF0E411802E1FF0EA0
:100D1800401818E10001010E885D006E000E895927
:100D2800016E00C088F001C089F0800E006E800E50
:100D38008919005C02E18851000804E3020E706F13
:100D4800000E716F000E511802E1640E501814E184
:100D58004F50010A02E1900E4E180EE10001000EFC
:100D68006D1902E1640E6C1907E1000E891902E1A0
:100D7800640E881901E178D0000E5F1802E1FF0EB9
:100D88005E18D8A471D0800E006E800E5118005CD9
:100D980002E1505000080EE2800E006E800E5118DD
:100DA800005C02E150505F0805E30001010E866F08
:100DB800000E876F800E006E800E4F18005C02E1F7
:100DC8004E5000080EE2800E010A006E800E4F1889
:100DD800005C02E14E508B0804E3010E4A6E000EDF
:100DE8004B6E0001800E006E800E6D19005C02E1F2
:100DF8006C5100080EE2800E006E800E6D19005CCA
:100E080002E16C515F0805E3010E6A6F000E6B6F1B
:100E180002D06A6B6B6B800E006E800E8919005CC5
:100E280002E1885100080EE2800E006E800E8919DA
:100E3800005C02E188515F0805E3010E706F000E47
:100E4800716F02D0706B716B640E506E000E516E34
:100E5800900E4E6E010E4F6E640E6C6F000E6D6F2D
:0A0E6800640E886F000E896F1200FF
:100E7200959495909598959A959C959E8394839038
:100E8200839E839C839A839831EC00F031EC00F0CE
:100E920031EC00F0838A838883846DEC00F08394C4
:100EA20031EC00F083846DEC00F0839431EC00F0BF
:100EB20083846DEC00F0839431EC00F0839883849A
:100EC2006DEC00F0839431EC00F083846DEC00F063
:100ED2008394839A838E83846DEC00F0839431EC47
:100EE20000F0839E838883846DEC00F08394839862
:100EF20083846DEC00F0839431EC00F083846DEC1C
:100F020000F08394838883846DEC00F0839431EC49
:100F120000F0839883846DEC00F08394838E838C3D
:100F2200838A838883846DEC00F0839431EC00F033
:060F3200000160811200C5
:100F3800FF0E566EFF0E576EFF0E586EFF0E596E5F
:100F4800CA0E526E100E536E000E546E000E556E81
:100F5800EE0E5A6E0B0E5B6E000E5C6E000E5D6E32
:100F6800FF0E0001616FFF0E626F000E636F000ECF
:100F7800646FAC8A900EAB6E948E949C9EAA03D03C
:080F8800AECF00F0FBD7120010
:100F90000001866B876B000E411802E1000E4018BD
:100FA00026E13E1E3F1E000E3F1802E1000E3E18D5
:100FB0000FE18AC094F08BC095F080C096F081C09C
:100FC00097F07EC098F07FC099F0C0EC02F00ED090
:100FD00082C094F083C095F084C096F085C097F0ED
:100FE00068C098F069C099F023EC02F02BD0746BC4
:100FF000756BC80E4C6E000E4D6E000E3F1802E170
:10100000000E3E180FE18AC094F08BC095F080C0AE
:1010100096F081C097F07EC098F07FC099F0C0EC48
:1010200002F00ED082C094F083C095F084C096F098
:1010300085C097F068C098F069C099F023EC02F081
:06104000406A416A120043
:10104600000E0001931902E1000E921905E1010E4E
:10105600006E000E016E35D0000E931902E1010EEE
:10106600921905E190C000F091C001F02AD0000E5F
:10107600931902E1020E92190BE190C000F091C0A3
:1010860001F090C004F091C005F0E5EC01F019D034
:10109600000E931902E1030E921911E190C000F0BF
:1010A60091C001F090C004F091C005F0E5EC01F0AC
:1010B60090C004F091C005F0E5EC01F002D0006AA2
:0410C600016A1200A9
:1010CA00AECF01F0ABA202D0AB98AB8801C000F062
:0210DA00120002
:1010DC003DD0000E3F1802E1000E3E1805E17CC029
:1010EC0000F07DC001F004D07AC000F07BC001F0AC
:1010FC0000C090F001C091F03DD0000E3F1802E10D
:10110C00000E3E1805E176C000F077C001F004D067
:10111C0078C000F079C001F000C090F001C091F0EF
:10112C0029D0000E3F1802E1000E3E1805E16EC0FA
:10113C0000F06FC001F004D072C000F073C001F079
:10114C0000C090F001C091F015D014D0000E000139
:10115C00751902E1000E7419BCE0000E751902E15C
:10116C00010E7419CAE0000E751902E1020E741911
:10117C00D8E0EBD7800E006E800E4D18005C02E1BB
:10118C004C5000080FE30001C80E4C6E000E4D6E63
:10119C0074C094F075C095F0FF0E966FFF0E976FAC
:1011AC0035EC03F0000E4D1802E1640E4C180AE108
:1011BC0074C094F075C095F090C096F091C097F003
:0611CC0035EC03F01200F7
:1011D200F28EF28AF294020ED56ECB0ED66EF30E1A
:0E11E200D76EC80E0001666F000E676F120018
:1011F0004A6A4B6A000E411802E1000E401826E1CF
:101200004C6A4D6AFF0E406EFF0E416E000E3F1895
:1012100002E1000E3E180DE17EC06EF07FC06FF05F
:1012200080C076F081C077F08AC07CF08BC07DF002
:101230000CD068C072F069C073F084C078F085C0CB
:1012400079F082C07AF083C07BF0A1D04C6A4D6AFD
:10125000010E00017425006E000E7521016E00C0A4
:1012600074F001C075F0800E7519006E800E005C80
:1012700002E1030E745D3AE2000E3F1802E1000E37
:101280003E1814E1000E751902E1010E741905E112
:101290007CC000F07DC001F004D076C000F077C0C3
:1012A00001F000C090F001C091F013D0000E75194C
:1012B00002E1010E741905E17AC000F07BC001F073
:1012C00004D078C000F079C001F000C090F001C0F7
:1012D00091F0010E745D946F000E7559956F90C07A
:1012E00096F091C097F035EC03F051D0746B756BAC
:1012F000C80E4C6E000E4D6E010E9A6F030E9B6F62
:10130000200E9C6F1CEC01F01B0E946F000E956F6D
:101310000DEC02F0000E3F1802E1000E3E181BE13A
:101320006EC07EF06FC07FF076C080F077C081F035
:101330007CC08AF07DC08BF08AC094F08BC095F0A1
:1013400080C096F081C097F07EC098F07FC099F081
:10135000C0EC02F01AD072C068F073C069F078C0B7
:1013600084F079C085F07AC082F07BC083F082C0BF
:1013700094F083C095F084C096F085C097F068C063
:1013800098F069C099F023EC02F0406A416A1200BB
:10139000000E00016B1902E1020E6A190DE17F0EC9
:1013A000006E800E6D19005C02E16C51EC0803E3E5
:1013B0006C6B6D6B01D0CCD092D0000E3F1802E167
:1013C000000E3E1813E1010E7C25006E000E7D21FB
:1013D000016E00C07CF001C07DF0000E7D1902E1BD
:1013E000180E7C1902E17C6B7D6B0AD0010E7A2508
:1013F000006E000E7B21016E00C07AF001C07BF010
:1014000082D0000E3F1802E1000E3E1813E1010EDB
:101410007625006E000E7721016E00C076F001C0C7
:1014200077F0000E771902E13C0E761902E1766B37
:10143000776B14D0010E7825006E000E7921016EB5
:1014400000C078F001C079F0000E791902E10D0EAC
:10145000781904E1010E786F000E796F54D0000EF8
:101460003F1802E1000E3E1813E1010E6E25006EDA
:10147000000E6F21016E00C06EF001C06FF0000E13
:101480006F1902E13C0E6E1902E16E6B6F6B25D095
:10149000010E7225006E000E7321016E00C072F005
:1014A00001C073F07AC09AF07BC09BF078C09CF0CA
:1014B00079C09DF04BEC01F0010E0024026E000E8D
:1014C0000120036E00017351031802E102507219EA
:1014D00004E1010E726F000E736F15D014D0000E70
:1014E000751902E1000E7419D8B467D7000E75198A
:1014F00002E1010E741985E0000E751902E1020E79
:101500007419ADE0EBD7000E3F1802E1000E3E1853
:101510000FE17CC094F07DC095F076C096F077C066
:1015200097F06EC098F06FC099F0C0EC02F00ED04A
:101530007AC094F07BC095F078C096F079C097F0AF
:1015400072C098F073C099F023EC02F06A6B6B6B79
:02155000120087
:1015520068EC0CF0F19EFF0E936E926A640E506E70
:10156200000E516E900E4E6E010E4F6E640E000113
:101572006C6F000E6D6F640E886F000E896F8A6B40
:101582008B6B806B816B7E6B7F6BD00E826F070ED5
:10159200836F010E846F000E856F010E686F000E5F
:1015A200696F746B756B3E6A3F6A406A416A866B0B
:1015B200876B4A6A4B6A6A6B6B6B706B716B486ABA
:1015C200496AFF0E446EFF0E456E426A436A466ADE
:1015D200476A196A1A6A176A186A256A266A48DC0B
:1015E2000C0E9E6F73EC00F0010E9E6F73EC00F018
:1015F200810EAF6EAC849FDC030E0B6E8A0E0C6EF6
:10160200550E0D6E0D2EFED70C2EFCD70B2EFAD7D3
:10161200000000008AC094F08BC095F080C096F064
:1016220081C097F07EC098F07FC099F0C0EC02F0C4
:10163200CFDDD58E000E491802E1000E481827E1D1
:10164200E4EC04F0000E871902E1010E861901E1B3
:101652009EDC000E4B1802E1010E4A1801E1C7DDC3
:10166200FF0E411802E1FF0E401811E1000E0001C9
:101672006B1902E1000E6A1901E089DE000E711990
:1016820002E1000E701902E01BEC05F026DDF7EC1A
:1016920005F00052D8B489D017DD00C065F0800E85
:1016A2004318006E800E005C02E1060E425C54E2BA
:1016B200000165512D0A42E065513A0A3FE0655149
:1016C200200A3CE065512F0A39E042C000F043C0D5
:1016D20001F0003600900136270E00248E6F000EB6
:1016E20001208F6F300E655D8C6F8D6B000E8D5BF0
:1016F2000A0E906F000E916F46C092F047C093F0B1
:10170200A1DC8CC004F08DC005F0E5EC01F08EC0C8
:10171200E9FF8FC0EAFFEECF02F0EECF03F00250F6
:101722000026035001228EC0E1FF8FC0E2FF00C0FD
:10173200E6FF01C0E6FF464A472A0ED0424A432A44
:10174200000E431802E1060E421804E1FF0E486E35
:10175200FF0E496E466A476A000165512F0A11E180
:10176200000E181802E1000E171805E1FF0E176EA1
:10177200FF0E186E06D0176A186AFF0E256EFF0E4E
:10178200266EFF0E181802E1FF0E17180EE1000177
:1017920065512F0A0AE0330E1924E16E000E1A2059
:1017A200E26E65C0E6FF194A1A2AFF0E491802E1E5
:1017B200FF0E481837E127C07EF028C07FF029C00D
:1017C20080F02AC081F02BC08AF02CC08BF02DC093
:1017D20068F02EC069F02FC084F030C085F031C0AF
:1017E20082F032C083F0426A436A800E4318006E70
:1017F200800E005C02E1060E425C12E242C000F082
:1018020043C001F0003600900136270E0024E16E3D
:10181200000E0120E26EE66AE66A424A432AE5D7F2
:10182200486A496AFF0E261802E1FF0E251837E1C1
:10183200800E1A18006E800E005C02E10A0E195C1E
:1018420019E2000E1A1802E1090E191808E1330E06
:101852001924E16E000E1A20E26EE66A08D0330EF9
:101862001924E16E000E1A20E26E200EE66E194A6D
:101872001A2ADED70001010E9A6F030E9B6F200E0B
:101882009C6F1CEC01F0330E946F000E956F0DEC03
:1018920002F0426A436A196A1A6A256A266ACAD635
:0218A200FFD76E
:1018D00010EE17F02B0E006E010E016EA40EF66EC8
:0E18E000180EF76E000EF86EDCEC04F012002D
:0218A400000042
:0218A600000040
:0A18A8002020202020202020200016
:0218B200000034
:0C18B40000000000000000000000000028
:0B18C0002020202020202020202000DD
:0218CB0000001B
:0218CD00000019
:020000040030CA
:0E000000000C1F1EFF8181FF0FC00FE00F409C
:00000001FF
